{
  "abi": [
    {
      "constant": true,
      "inputs": [],
      "name": "name",
      "outputs": [
        {
          "internalType": "string",
          "name": "",
          "type": "string"
        }
      ],
      "payable": false,
      "stateMutability": "view",
      "type": "function"
    },
    {
      "constant": false,
      "inputs": [
        {
          "internalType": "address",
          "name": "_spender",
          "type": "address"
        },
        {
          "internalType": "uint256",
          "name": "_value",
          "type": "uint256"
        }
      ],
      "name": "approve",
      "outputs": [
        {
          "internalType": "bool",
          "name": "",
          "type": "bool"
        }
      ],
      "payable": false,
      "stateMutability": "nonpayable",
      "type": "function"
    },
    {
      "constant": true,
      "inputs": [],
      "name": "totalSupply",
      "outputs": [
        {
          "internalType": "uint256",
          "name": "",
          "type": "uint256"
        }
      ],
      "payable": false,
      "stateMutability": "view",
      "type": "function"
    },
    {
      "constant": false,
      "inputs": [
        {
          "internalType": "address",
          "name": "_from",
          "type": "address"
        },
        {
          "internalType": "address",
          "name": "_to",
          "type": "address"
        },
        {
          "internalType": "uint256",
          "name": "_value",
          "type": "uint256"
        }
      ],
      "name": "transferFrom",
      "outputs": [
        {
          "internalType": "bool",
          "name": "",
          "type": "bool"
        }
      ],
      "payable": false,
      "stateMutability": "nonpayable",
      "type": "function"
    },
    {
      "constant": false,
      "inputs": [
        {
          "internalType": "uint256",
          "name": "_burnValue",
          "type": "uint256"
        }
      ],
      "name": "withdraw",
      "outputs": [
        {
          "internalType": "bool",
          "name": "",
          "type": "bool"
        }
      ],
      "payable": false,
      "stateMutability": "nonpayable",
      "type": "function"
    },
    {
      "constant": true,
      "inputs": [],
      "name": "decimals",
      "outputs": [
        {
          "internalType": "uint256",
          "name": "",
          "type": "uint256"
        }
      ],
      "payable": false,
      "stateMutability": "view",
      "type": "function"
    },
    {
      "constant": true,
      "inputs": [
        {
          "internalType": "address",
          "name": "_owner",
          "type": "address"
        }
      ],
      "name": "balanceOf",
      "outputs": [
        {
          "internalType": "uint256",
          "name": "",
          "type": "uint256"
        }
      ],
      "payable": false,
      "stateMutability": "view",
      "type": "function"
    },
    {
      "constant": true,
      "inputs": [],
      "name": "symbol",
      "outputs": [
        {
          "internalType": "string",
          "name": "",
          "type": "string"
        }
      ],
      "payable": false,
      "stateMutability": "view",
      "type": "function"
    },
    {
      "constant": false,
      "inputs": [
        {
          "internalType": "address",
          "name": "_to",
          "type": "address"
        },
        {
          "internalType": "uint256",
          "name": "_value",
          "type": "uint256"
        }
      ],
      "name": "transfer",
      "outputs": [
        {
          "internalType": "bool",
          "name": "",
          "type": "bool"
        }
      ],
      "payable": false,
      "stateMutability": "nonpayable",
      "type": "function"
    },
    {
      "constant": false,
      "inputs": [
        {
          "internalType": "uint256",
          "name": "_underlyingValue",
          "type": "uint256"
        }
      ],
      "name": "deposit",
      "outputs": [
        {
          "internalType": "bool",
          "name": "",
          "type": "bool"
        }
      ],
      "payable": false,
      "stateMutability": "nonpayable",
      "type": "function"
    },
    {
      "constant": true,
      "inputs": [
        {
          "internalType": "address",
          "name": "_owner",
          "type": "address"
        },
        {
          "internalType": "address",
          "name": "_spender",
          "type": "address"
        }
      ],
      "name": "allowance",
      "outputs": [
        {
          "internalType": "uint256",
          "name": "",
          "type": "uint256"
        }
      ],
      "payable": false,
      "stateMutability": "view",
      "type": "function"
    },
    {
      "inputs": [
        {
          "internalType": "string",
          "name": "_symbol",
          "type": "string"
        },
        {
          "internalType": "string",
          "name": "_name",
          "type": "string"
        },
        {
          "internalType": "uint256",
          "name": "_decimals",
          "type": "uint256"
        },
        {
          "internalType": "uint256",
          "name": "_totalSupply",
          "type": "uint256"
        },
        {
          "internalType": "address",
          "name": "_underlyingTokenAddress",
          "type": "address"
        },
        {
          "internalType": "uint256",
          "name": "_conversionFactor",
          "type": "uint256"
        }
      ],
      "payable": false,
      "stateMutability": "nonpayable",
      "type": "constructor"
    },
    {
      "payable": true,
      "stateMutability": "payable",
      "type": "fallback"
    },
    {
      "anonymous": false,
      "inputs": [
        {
          "indexed": false,
          "internalType": "address",
          "name": "from",
          "type": "address"
        },
        {
          "indexed": false,
          "internalType": "address",
          "name": "to",
          "type": "address"
        },
        {
          "indexed": false,
          "internalType": "uint256",
          "name": "value",
          "type": "uint256"
        }
      ],
      "name": "Transfer",
      "type": "event"
    },
    {
      "anonymous": false,
      "inputs": [
        {
          "indexed": false,
          "internalType": "address",
          "name": "owner",
          "type": "address"
        },
        {
          "indexed": false,
          "internalType": "address",
          "name": "spender",
          "type": "address"
        },
        {
          "indexed": false,
          "internalType": "uint256",
          "name": "value",
          "type": "uint256"
        }
      ],
      "name": "Approval",
      "type": "event"
    },
    {
      "anonymous": false,
      "inputs": [
        {
          "indexed": false,
          "internalType": "address",
          "name": "minter",
          "type": "address"
        },
        {
          "indexed": false,
          "internalType": "uint256",
          "name": "value",
          "type": "uint256"
        }
      ],
      "name": "Mint",
      "type": "event"
    },
    {
      "anonymous": false,
      "inputs": [
        {
          "indexed": false,
          "internalType": "address",
          "name": "burner",
          "type": "address"
        },
        {
          "indexed": false,
          "internalType": "uint256",
          "name": "value",
          "type": "uint256"
        }
      ],
      "name": "Burn",
      "type": "event"
    }
  ],
  "bytecode": "60806040523480156200001157600080fd5b5060405162000f0438038062000f04833981810160405260c08110156200003757600080fd5b81019080805160405193929190846401000000008211156200005857600080fd5b9083019060208201858111156200006e57600080fd5b82516401000000008111828201881017156200008957600080fd5b82525081516020918201929091019080838360005b83811015620000b85781810151838201526020016200009e565b50505050905090810190601f168015620000e65780820380516001836020036101000a031916815260200191505b50604052602001805160405193929190846401000000008211156200010a57600080fd5b9083019060208201858111156200012057600080fd5b82516401000000008111828201881017156200013b57600080fd5b82525081516020918201929091019080838360005b838110156200016a57818101518382015260200162000150565b50505050905090810190601f168015620001985780820380516001836020036101000a031916815260200191505b506040908152602082810151918301516060840151608090940151885193965090945091620001ce91600091908901906200026f565b508451620001e49060019060208801906200026f565b5060028490556003839055600580546001600160a01b0319166001600160a01b038416179055600481905533600081815260066020908152604080832087905580519283529082019290925280820185905290517fddf252ad1be2c89b69c2b068fc378daa952ba7f163c4a11628f55a4df523b3ef916060908290030190a150505050505062000314565b828054600181600116156101000203166002900490600052602060002090601f016020900481019282601f10620002b257805160ff1916838001178555620002e2565b82800160010185558215620002e2579182015b82811115620002e2578251825591602001919060010190620002c5565b50620002f0929150620002f4565b5090565b6200031191905b80821115620002f05760008155600101620002fb565b90565b610be080620003246000396000f3fe60806040526004361061009c5760003560e01c8063313ce56711610064578063313ce5671461025457806370a082311461026957806395d89b411461029c578063a9059cbb146102b1578063b6b55f25146102ea578063dd62ed3e146103145761009c565b806306fdde03146100e9578063095ea7b31461017357806318160ddd146101c057806323b872dd146101e75780632e1a7d4d1461022a575b6040805162461bcd60e51b815260206004820152601c60248201527f5468697320636f6e7472616374206973206e6f742070617961626c6500000000604482015290519081900360640190fd5b3480156100f557600080fd5b506100fe61034f565b6040805160208082528351818301528351919283929083019185019080838360005b83811015610138578181015183820152602001610120565b50505050905090810190601f1680156101655780820380516001836020036101000a031916815260200191505b509250505060405180910390f35b34801561017f57600080fd5b506101ac6004803603604081101561019657600080fd5b506001600160a01b0381351690602001356103dc565b604080519115158252519081900360200190f35b3480156101cc57600080fd5b506101d56104c7565b60408051918252519081900360200190f35b3480156101f357600080fd5b506101ac6004803603606081101561020a57600080fd5b506001600160a01b038135811691602081013590911690604001356104cd565b34801561023657600080fd5b506101ac6004803603602081101561024d57600080fd5b5035610650565b34801561026057600080fd5b506101d561081c565b34801561027557600080fd5b506101d56004803603602081101561028c57600080fd5b50356001600160a01b0316610822565b3480156102a857600080fd5b506100fe61083d565b3480156102bd57600080fd5b506101ac600480360360408110156102d457600080fd5b506001600160a01b038135169060200135610898565b3480156102f657600080fd5b506101ac6004803603602081101561030d57600080fd5b5035610950565b34801561032057600080fd5b506101d56004803603604081101561033757600080fd5b506001600160a01b0381358116916020013516610a90565b60018054604080516020600284861615610100026000190190941693909304601f810184900484028201840190925281815292918301828280156103d45780601f106103a9576101008083540402835291602001916103d4565b820191906000526020600020905b8154815290600101906020018083116103b757829003601f168201915b505050505081565b3360009081526007602090815260408083206001600160a01b03868116808652918452828520869055600554835163095ea7b360e01b8152600481019390935260248301879052925192169263095ea7b39260448084019382900301818787803b15801561044957600080fd5b505af115801561045d573d6000803e3d6000fd5b505050506040513d602081101561047357600080fd5b5050604080513381526001600160a01b038516602082015280820184905290517f8c5be1e5ebec7d5bd14f71427d1e84f3dd0314c0f7b2291e5b200ac8c7c3b9259181900360600190a15060015b92915050565b60035481565b6001600160a01b038316600090815260076020908152604080832033845290915281205482111561053e576040805162461bcd60e51b8152602060048201526016602482015275496e73756666696369656e7420616c6c6f77616e636560501b604482015290519081900360640190fd5b6001600160a01b038416600090815260066020526040902054610567908363ffffffff610abb16565b6001600160a01b03851660009081526006602090815260408083209390935560078152828220338352905220546105a4908363ffffffff610abb16565b6001600160a01b0380861660009081526007602090815260408083203384528252808320949094559186168152600690915220546105e8908363ffffffff610ad016565b6001600160a01b0380851660008181526006602090815260409182902094909455805192881683529282015280820184905290517fddf252ad1be2c89b69c2b068fc378daa952ba7f163c4a11628f55a4df523b3ef9181900360600190a15060019392505050565b3360009081526006602052604081205482111561069e5760405162461bcd60e51b815260040180806020018281038252604b815260200180610b61604b913960600191505060405180910390fd5b8160035410156106df5760405162461bcd60e51b8152600401808060200182810382526040815260200180610b216040913960400191505060405180910390fd5b6003546106f2908363ffffffff610abb16565b60035533600090815260066020526040902054610715908363ffffffff610abb16565b3360009081526006602052604081209190915560045461074f9060649061074390869063ffffffff610ae016565b9063ffffffff610aff16565b600554604080516323b872dd60e01b81523060048201523360248201526044810184905290519293506001600160a01b03909116916323b872dd916064808201926020929091908290030181600087803b1580156107ac57600080fd5b505af11580156107c0573d6000803e3d6000fd5b505050506040513d60208110156107d657600080fd5b5050604080513381526020810185905281517fcc16f5dbb4873280815c1ee09dbd06736cffcc184412cf7a71a0fdb75d397ca5929181900390910190a150600192915050565b60025481565b6001600160a01b031660009081526006602052604090205490565b6000805460408051602060026001851615610100026000190190941693909304601f810184900484028201840190925281815292918301828280156103d45780601f106103a9576101008083540402835291602001916103d4565b336000908152600660205260408120546108b8908363ffffffff610abb16565b33600090815260066020526040808220929092556001600160a01b038516815220546108ea908363ffffffff610ad016565b6001600160a01b03841660008181526006602090815260409182902093909355805133815292830191909152818101849052517fddf252ad1be2c89b69c2b068fc378daa952ba7f163c4a11628f55a4df523b3ef9181900360600190a150600192915050565b600554604080516323b872dd60e01b81523360048201523060248201526044810184905290516000926001600160a01b0316916323b872dd91606480830192602092919082900301818787803b1580156109a957600080fd5b505af11580156109bd573d6000803e3d6000fd5b505050506040513d60208110156109d357600080fd5b50506004546000906109ff906064906109f390869063ffffffff610aff16565b9063ffffffff610ae016565b600354909150610a15908263ffffffff610ad016565b60035533600090815260066020526040902054610a38908263ffffffff610ad016565b3360008181526006602090815260409182902093909355805191825291810183905281517f0f6798a560793a54c3bcfe86a93cde1e73087d944c0ea20544137d4121396885929181900390910190a150600192915050565b6001600160a01b03918216600090815260076020908152604080832093909416825291909152205490565b600082821115610aca57600080fd5b50900390565b818101828110156104c157600080fd5b6000808211610aee57600080fd5b818381610af757fe5b049392505050565b818102821580610b17575081838281610b1457fe5b04145b6104c157600080fdfe436f6e747261637420646f6573206e6f7420636f6e7461696e20656e6f75676820746f6b656e7320746f207769746864726177207468697320616d6f756e742e53656e64657220646f6573206e6f74206861766520656e6f75676820746f6b656e7320696e2074686569722077616c6c657420746f207769746864726177207468697320616d6f756e742ea265627a7a7231582085cac24d66db765cbaf9bb5e366958a16957de38bb5761e7575e6380a86488f464736f6c634300050b0032",
  "bytecodeSha1": "79620a49d829cf6f164725c1025cfa4b9cb2fb58",
  "compiler": {
    "evm_version": "petersburg",
    "minify_source": false,
    "optimize": true,
    "runs": 200,
    "version": "Version: 0.5.11+commit.22be8592.Darwin.appleclang"
  },
  "contractName": "HKDai",
  "opcodes": "PUSH1 0x80 PUSH1 0x40 MSTORE PUSH1 0x4 CALLDATASIZE LT PUSH2 0x9c JUMPI PUSH1 0x0 CALLDATALOAD PUSH1 0xe0 SHR DUP1 PUSH4 0x313ce567 GT PUSH2 0x64 JUMPI DUP1 PUSH4 0x313ce567 EQ PUSH2 0x254 JUMPI DUP1 PUSH4 0x70a08231 EQ PUSH2 0x269 JUMPI DUP1 PUSH4 0x95d89b41 EQ PUSH2 0x29c JUMPI DUP1 PUSH4 0xa9059cbb EQ PUSH2 0x2b1 JUMPI DUP1 PUSH4 0xb6b55f25 EQ PUSH2 0x2ea JUMPI DUP1 PUSH4 0xdd62ed3e EQ PUSH2 0x314 JUMPI PUSH2 0x9c JUMP JUMPDEST DUP1 PUSH4 0x6fdde03 EQ PUSH2 0xe9 JUMPI DUP1 PUSH4 0x95ea7b3 EQ PUSH2 0x173 JUMPI DUP1 PUSH4 0x18160ddd EQ PUSH2 0x1c0 JUMPI DUP1 PUSH4 0x23b872dd EQ PUSH2 0x1e7 JUMPI DUP1 PUSH4 0x2e1a7d4d EQ PUSH2 0x22a JUMPI JUMPDEST PUSH1 0x40 DUP1 MLOAD PUSH3 0x461bcd PUSH1 0xe5 SHL DUP2 MSTORE PUSH1 0x20 PUSH1 0x4 DUP3 ADD MSTORE PUSH1 0x1c PUSH1 0x24 DUP3 ADD MSTORE PUSH32 0x5468697320636f6e7472616374206973206e6f742070617961626c6500000000 PUSH1 0x44 DUP3 ADD MSTORE SWAP1 MLOAD SWAP1 DUP2 SWAP1 SUB PUSH1 0x64 ADD SWAP1 REVERT JUMPDEST CALLVALUE DUP1 ISZERO PUSH2 0xf5 JUMPI PUSH1 0x0 DUP1 REVERT JUMPDEST POP PUSH2 0xfe PUSH2 0x34f JUMP JUMPDEST PUSH1 0x40 DUP1 MLOAD PUSH1 0x20 DUP1 DUP3 MSTORE DUP4 MLOAD DUP2 DUP4 ADD MSTORE DUP4 MLOAD SWAP2 SWAP3 DUP4 SWAP3 SWAP1 DUP4 ADD SWAP2 DUP6 ADD SWAP1 DUP1 DUP4 DUP4 PUSH1 0x0 JUMPDEST DUP4 DUP2 LT ISZERO PUSH2 0x138 JUMPI DUP2 DUP2 ADD MLOAD DUP4 DUP3 ADD MSTORE PUSH1 0x20 ADD PUSH2 0x120 JUMP JUMPDEST POP POP POP POP SWAP1 POP SWAP1 DUP2 ADD SWAP1 PUSH1 0x1f AND DUP1 ISZERO PUSH2 0x165 JUMPI DUP1 DUP3 SUB DUP1 MLOAD PUSH1 0x1 DUP4 PUSH1 0x20 SUB PUSH2 0x100 EXP SUB NOT AND DUP2 MSTORE PUSH1 0x20 ADD SWAP2 POP JUMPDEST POP SWAP3 POP POP POP PUSH1 0x40 MLOAD DUP1 SWAP2 SUB SWAP1 RETURN JUMPDEST CALLVALUE DUP1 ISZERO PUSH2 0x17f JUMPI PUSH1 0x0 DUP1 REVERT JUMPDEST POP PUSH2 0x1ac PUSH1 0x4 DUP1 CALLDATASIZE SUB PUSH1 0x40 DUP2 LT ISZERO PUSH2 0x196 JUMPI PUSH1 0x0 DUP1 REVERT JUMPDEST POP PUSH1 0x1 PUSH1 0x1 PUSH1 0xa0 SHL SUB DUP2 CALLDATALOAD AND SWAP1 PUSH1 0x20 ADD CALLDATALOAD PUSH2 0x3dc JUMP JUMPDEST PUSH1 0x40 DUP1 MLOAD SWAP2 ISZERO ISZERO DUP3 MSTORE MLOAD SWAP1 DUP2 SWAP1 SUB PUSH1 0x20 ADD SWAP1 RETURN JUMPDEST CALLVALUE DUP1 ISZERO PUSH2 0x1cc JUMPI PUSH1 0x0 DUP1 REVERT JUMPDEST POP PUSH2 0x1d5 PUSH2 0x4c7 JUMP JUMPDEST PUSH1 0x40 DUP1 MLOAD SWAP2 DUP3 MSTORE MLOAD SWAP1 DUP2 SWAP1 SUB PUSH1 0x20 ADD SWAP1 RETURN JUMPDEST CALLVALUE DUP1 ISZERO PUSH2 0x1f3 JUMPI PUSH1 0x0 DUP1 REVERT JUMPDEST POP PUSH2 0x1ac PUSH1 0x4 DUP1 CALLDATASIZE SUB PUSH1 0x60 DUP2 LT ISZERO PUSH2 0x20a JUMPI PUSH1 0x0 DUP1 REVERT JUMPDEST POP PUSH1 0x1 PUSH1 0x1 PUSH1 0xa0 SHL SUB DUP2 CALLDATALOAD DUP2 AND SWAP2 PUSH1 0x20 DUP2 ADD CALLDATALOAD SWAP1 SWAP2 AND SWAP1 PUSH1 0x40 ADD CALLDATALOAD PUSH2 0x4cd JUMP JUMPDEST CALLVALUE DUP1 ISZERO PUSH2 0x236 JUMPI PUSH1 0x0 DUP1 REVERT JUMPDEST POP PUSH2 0x1ac PUSH1 0x4 DUP1 CALLDATASIZE SUB PUSH1 0x20 DUP2 LT ISZERO PUSH2 0x24d JUMPI PUSH1 0x0 DUP1 REVERT JUMPDEST POP CALLDATALOAD PUSH2 0x650 JUMP JUMPDEST CALLVALUE DUP1 ISZERO PUSH2 0x260 JUMPI PUSH1 0x0 DUP1 REVERT JUMPDEST POP PUSH2 0x1d5 PUSH2 0x81c JUMP JUMPDEST CALLVALUE DUP1 ISZERO PUSH2 0x275 JUMPI PUSH1 0x0 DUP1 REVERT JUMPDEST POP PUSH2 0x1d5 PUSH1 0x4 DUP1 CALLDATASIZE SUB PUSH1 0x20 DUP2 LT ISZERO PUSH2 0x28c JUMPI PUSH1 0x0 DUP1 REVERT JUMPDEST POP CALLDATALOAD PUSH1 0x1 PUSH1 0x1 PUSH1 0xa0 SHL SUB AND PUSH2 0x822 JUMP JUMPDEST CALLVALUE DUP1 ISZERO PUSH2 0x2a8 JUMPI PUSH1 0x0 DUP1 REVERT JUMPDEST POP PUSH2 0xfe PUSH2 0x83d JUMP JUMPDEST CALLVALUE DUP1 ISZERO PUSH2 0x2bd JUMPI PUSH1 0x0 DUP1 REVERT JUMPDEST POP PUSH2 0x1ac PUSH1 0x4 DUP1 CALLDATASIZE SUB PUSH1 0x40 DUP2 LT ISZERO PUSH2 0x2d4 JUMPI PUSH1 0x0 DUP1 REVERT JUMPDEST POP PUSH1 0x1 PUSH1 0x1 PUSH1 0xa0 SHL SUB DUP2 CALLDATALOAD AND SWAP1 PUSH1 0x20 ADD CALLDATALOAD PUSH2 0x898 JUMP JUMPDEST CALLVALUE DUP1 ISZERO PUSH2 0x2f6 JUMPI PUSH1 0x0 DUP1 REVERT JUMPDEST POP PUSH2 0x1ac PUSH1 0x4 DUP1 CALLDATASIZE SUB PUSH1 0x20 DUP2 LT ISZERO PUSH2 0x30d JUMPI PUSH1 0x0 DUP1 REVERT JUMPDEST POP CALLDATALOAD PUSH2 0x950 JUMP JUMPDEST CALLVALUE DUP1 ISZERO PUSH2 0x320 JUMPI PUSH1 0x0 DUP1 REVERT JUMPDEST POP PUSH2 0x1d5 PUSH1 0x4 DUP1 CALLDATASIZE SUB PUSH1 0x40 DUP2 LT ISZERO PUSH2 0x337 JUMPI PUSH1 0x0 DUP1 REVERT JUMPDEST POP PUSH1 0x1 PUSH1 0x1 PUSH1 0xa0 SHL SUB DUP2 CALLDATALOAD DUP2 AND SWAP2 PUSH1 0x20 ADD CALLDATALOAD AND PUSH2 0xa90 JUMP JUMPDEST PUSH1 0x1 DUP1 SLOAD PUSH1 0x40 DUP1 MLOAD PUSH1 0x20 PUSH1 0x2 DUP5 DUP7 AND ISZERO PUSH2 0x100 MUL PUSH1 0x0 NOT ADD SWAP1 SWAP5 AND SWAP4 SWAP1 SWAP4 DIV PUSH1 0x1f DUP2 ADD DUP5 SWAP1 DIV DUP5 MUL DUP3 ADD DUP5 ADD SWAP1 SWAP3 MSTORE DUP2 DUP2 MSTORE SWAP3 SWAP2 DUP4 ADD DUP3 DUP3 DUP1 ISZERO PUSH2 0x3d4 JUMPI DUP1 PUSH1 0x1f LT PUSH2 0x3a9 JUMPI PUSH2 0x100 DUP1 DUP4 SLOAD DIV MUL DUP4 MSTORE SWAP2 PUSH1 0x20 ADD SWAP2 PUSH2 0x3d4 JUMP JUMPDEST DUP3 ADD SWAP2 SWAP1 PUSH1 0x0 MSTORE PUSH1 0x20 PUSH1 0x0 KECCAK256 SWAP1 JUMPDEST DUP2 SLOAD DUP2 MSTORE SWAP1 PUSH1 0x1 ADD SWAP1 PUSH1 0x20 ADD DUP1 DUP4 GT PUSH2 0x3b7 JUMPI DUP3 SWAP1 SUB PUSH1 0x1f AND DUP3 ADD SWAP2 JUMPDEST POP POP POP POP POP DUP2 JUMP JUMPDEST CALLER PUSH1 0x0 SWAP1 DUP2 MSTORE PUSH1 0x7 PUSH1 0x20 SWAP1 DUP2 MSTORE PUSH1 0x40 DUP1 DUP4 KECCAK256 PUSH1 0x1 PUSH1 0x1 PUSH1 0xa0 SHL SUB DUP7 DUP2 AND DUP1 DUP7 MSTORE SWAP2 DUP5 MSTORE DUP3 DUP6 KECCAK256 DUP7 SWAP1 SSTORE PUSH1 0x5 SLOAD DUP4 MLOAD PUSH4 0x95ea7b3 PUSH1 0xe0 SHL DUP2 MSTORE PUSH1 0x4 DUP2 ADD SWAP4 SWAP1 SWAP4 MSTORE PUSH1 0x24 DUP4 ADD DUP8 SWAP1 MSTORE SWAP3 MLOAD SWAP3 AND SWAP3 PUSH4 0x95ea7b3 SWAP3 PUSH1 0x44 DUP1 DUP5 ADD SWAP4 DUP3 SWAP1 SUB ADD DUP2 DUP8 DUP8 DUP1 EXTCODESIZE ISZERO DUP1 ISZERO PUSH2 0x449 JUMPI PUSH1 0x0 DUP1 REVERT JUMPDEST POP GAS CALL ISZERO DUP1 ISZERO PUSH2 0x45d JUMPI RETURNDATASIZE PUSH1 0x0 DUP1 RETURNDATACOPY RETURNDATASIZE PUSH1 0x0 REVERT JUMPDEST POP POP POP POP PUSH1 0x40 MLOAD RETURNDATASIZE PUSH1 0x20 DUP2 LT ISZERO PUSH2 0x473 JUMPI PUSH1 0x0 DUP1 REVERT JUMPDEST POP POP PUSH1 0x40 DUP1 MLOAD CALLER DUP2 MSTORE PUSH1 0x1 PUSH1 0x1 PUSH1 0xa0 SHL SUB DUP6 AND PUSH1 0x20 DUP3 ADD MSTORE DUP1 DUP3 ADD DUP5 SWAP1 MSTORE SWAP1 MLOAD PUSH32 0x8c5be1e5ebec7d5bd14f71427d1e84f3dd0314c0f7b2291e5b200ac8c7c3b925 SWAP2 DUP2 SWAP1 SUB PUSH1 0x60 ADD SWAP1 LOG1 POP PUSH1 0x1 JUMPDEST SWAP3 SWAP2 POP POP JUMP JUMPDEST PUSH1 0x3 SLOAD DUP2 JUMP JUMPDEST PUSH1 0x1 PUSH1 0x1 PUSH1 0xa0 SHL SUB DUP4 AND PUSH1 0x0 SWAP1 DUP2 MSTORE PUSH1 0x7 PUSH1 0x20 SWAP1 DUP2 MSTORE PUSH1 0x40 DUP1 DUP4 KECCAK256 CALLER DUP5 MSTORE SWAP1 SWAP2 MSTORE DUP2 KECCAK256 SLOAD DUP3 GT ISZERO PUSH2 0x53e JUMPI PUSH1 0x40 DUP1 MLOAD PUSH3 0x461bcd PUSH1 0xe5 SHL DUP2 MSTORE PUSH1 0x20 PUSH1 0x4 DUP3 ADD MSTORE PUSH1 0x16 PUSH1 0x24 DUP3 ADD MSTORE PUSH22 0x496e73756666696369656e7420616c6c6f77616e6365 PUSH1 0x50 SHL PUSH1 0x44 DUP3 ADD MSTORE SWAP1 MLOAD SWAP1 DUP2 SWAP1 SUB PUSH1 0x64 ADD SWAP1 REVERT JUMPDEST PUSH1 0x1 PUSH1 0x1 PUSH1 0xa0 SHL SUB DUP5 AND PUSH1 0x0 SWAP1 DUP2 MSTORE PUSH1 0x6 PUSH1 0x20 MSTORE PUSH1 0x40 SWAP1 KECCAK256 SLOAD PUSH2 0x567 SWAP1 DUP4 PUSH4 0xffffffff PUSH2 0xabb AND JUMP JUMPDEST PUSH1 0x1 PUSH1 0x1 PUSH1 0xa0 SHL SUB DUP6 AND PUSH1 0x0 SWAP1 DUP2 MSTORE PUSH1 0x6 PUSH1 0x20 SWAP1 DUP2 MSTORE PUSH1 0x40 DUP1 DUP4 KECCAK256 SWAP4 SWAP1 SWAP4 SSTORE PUSH1 0x7 DUP2 MSTORE DUP3 DUP3 KECCAK256 CALLER DUP4 MSTORE SWAP1 MSTORE KECCAK256 SLOAD PUSH2 0x5a4 SWAP1 DUP4 PUSH4 0xffffffff PUSH2 0xabb AND JUMP JUMPDEST PUSH1 0x1 PUSH1 0x1 PUSH1 0xa0 SHL SUB DUP1 DUP7 AND PUSH1 0x0 SWAP1 DUP2 MSTORE PUSH1 0x7 PUSH1 0x20 SWAP1 DUP2 MSTORE PUSH1 0x40 DUP1 DUP4 KECCAK256 CALLER DUP5 MSTORE DUP3 MSTORE DUP1 DUP4 KECCAK256 SWAP5 SWAP1 SWAP5 SSTORE SWAP2 DUP7 AND DUP2 MSTORE PUSH1 0x6 SWAP1 SWAP2 MSTORE KECCAK256 SLOAD PUSH2 0x5e8 SWAP1 DUP4 PUSH4 0xffffffff PUSH2 0xad0 AND JUMP JUMPDEST PUSH1 0x1 PUSH1 0x1 PUSH1 0xa0 SHL SUB DUP1 DUP6 AND PUSH1 0x0 DUP2 DUP2 MSTORE PUSH1 0x6 PUSH1 0x20 SWAP1 DUP2 MSTORE PUSH1 0x40 SWAP2 DUP3 SWAP1 KECCAK256 SWAP5 SWAP1 SWAP5 SSTORE DUP1 MLOAD SWAP3 DUP9 AND DUP4 MSTORE SWAP3 DUP3 ADD MSTORE DUP1 DUP3 ADD DUP5 SWAP1 MSTORE SWAP1 MLOAD PUSH32 0xddf252ad1be2c89b69c2b068fc378daa952ba7f163c4a11628f55a4df523b3ef SWAP2 DUP2 SWAP1 SUB PUSH1 0x60 ADD SWAP1 LOG1 POP PUSH1 0x1 SWAP4 SWAP3 POP POP POP JUMP JUMPDEST CALLER PUSH1 0x0 SWAP1 DUP2 MSTORE PUSH1 0x6 PUSH1 0x20 MSTORE PUSH1 0x40 DUP2 KECCAK256 SLOAD DUP3 GT ISZERO PUSH2 0x69e JUMPI PUSH1 0x40 MLOAD PUSH3 0x461bcd PUSH1 0xe5 SHL DUP2 MSTORE PUSH1 0x4 ADD DUP1 DUP1 PUSH1 0x20 ADD DUP3 DUP2 SUB DUP3 MSTORE PUSH1 0x4b DUP2 MSTORE PUSH1 0x20 ADD DUP1 PUSH2 0xb61 PUSH1 0x4b SWAP2 CODECOPY PUSH1 0x60 ADD SWAP2 POP POP PUSH1 0x40 MLOAD DUP1 SWAP2 SUB SWAP1 REVERT JUMPDEST DUP2 PUSH1 0x3 SLOAD LT ISZERO PUSH2 0x6df JUMPI PUSH1 0x40 MLOAD PUSH3 0x461bcd PUSH1 0xe5 SHL DUP2 MSTORE PUSH1 0x4 ADD DUP1 DUP1 PUSH1 0x20 ADD DUP3 DUP2 SUB DUP3 MSTORE PUSH1 0x40 DUP2 MSTORE PUSH1 0x20 ADD DUP1 PUSH2 0xb21 PUSH1 0x40 SWAP2 CODECOPY PUSH1 0x40 ADD SWAP2 POP POP PUSH1 0x40 MLOAD DUP1 SWAP2 SUB SWAP1 REVERT JUMPDEST PUSH1 0x3 SLOAD PUSH2 0x6f2 SWAP1 DUP4 PUSH4 0xffffffff PUSH2 0xabb AND JUMP JUMPDEST PUSH1 0x3 SSTORE CALLER PUSH1 0x0 SWAP1 DUP2 MSTORE PUSH1 0x6 PUSH1 0x20 MSTORE PUSH1 0x40 SWAP1 KECCAK256 SLOAD PUSH2 0x715 SWAP1 DUP4 PUSH4 0xffffffff PUSH2 0xabb AND JUMP JUMPDEST CALLER PUSH1 0x0 SWAP1 DUP2 MSTORE PUSH1 0x6 PUSH1 0x20 MSTORE PUSH1 0x40 DUP2 KECCAK256 SWAP2 SWAP1 SWAP2 SSTORE PUSH1 0x4 SLOAD PUSH2 0x74f SWAP1 PUSH1 0x64 SWAP1 PUSH2 0x743 SWAP1 DUP7 SWAP1 PUSH4 0xffffffff PUSH2 0xae0 AND JUMP JUMPDEST SWAP1 PUSH4 0xffffffff PUSH2 0xaff AND JUMP JUMPDEST PUSH1 0x5 SLOAD PUSH1 0x40 DUP1 MLOAD PUSH4 0x23b872dd PUSH1 0xe0 SHL DUP2 MSTORE ADDRESS PUSH1 0x4 DUP3 ADD MSTORE CALLER PUSH1 0x24 DUP3 ADD MSTORE PUSH1 0x44 DUP2 ADD DUP5 SWAP1 MSTORE SWAP1 MLOAD SWAP3 SWAP4 POP PUSH1 0x1 PUSH1 0x1 PUSH1 0xa0 SHL SUB SWAP1 SWAP2 AND SWAP2 PUSH4 0x23b872dd SWAP2 PUSH1 0x64 DUP1 DUP3 ADD SWAP3 PUSH1 0x20 SWAP3 SWAP1 SWAP2 SWAP1 DUP3 SWAP1 SUB ADD DUP2 PUSH1 0x0 DUP8 DUP1 EXTCODESIZE ISZERO DUP1 ISZERO PUSH2 0x7ac JUMPI PUSH1 0x0 DUP1 REVERT JUMPDEST POP GAS CALL ISZERO DUP1 ISZERO PUSH2 0x7c0 JUMPI RETURNDATASIZE PUSH1 0x0 DUP1 RETURNDATACOPY RETURNDATASIZE PUSH1 0x0 REVERT JUMPDEST POP POP POP POP PUSH1 0x40 MLOAD RETURNDATASIZE PUSH1 0x20 DUP2 LT ISZERO PUSH2 0x7d6 JUMPI PUSH1 0x0 DUP1 REVERT JUMPDEST POP POP PUSH1 0x40 DUP1 MLOAD CALLER DUP2 MSTORE PUSH1 0x20 DUP2 ADD DUP6 SWAP1 MSTORE DUP2 MLOAD PUSH32 0xcc16f5dbb4873280815c1ee09dbd06736cffcc184412cf7a71a0fdb75d397ca5 SWAP3 SWAP2 DUP2 SWAP1 SUB SWAP1 SWAP2 ADD SWAP1 LOG1 POP PUSH1 0x1 SWAP3 SWAP2 POP POP JUMP JUMPDEST PUSH1 0x2 SLOAD DUP2 JUMP JUMPDEST PUSH1 0x1 PUSH1 0x1 PUSH1 0xa0 SHL SUB AND PUSH1 0x0 SWAP1 DUP2 MSTORE PUSH1 0x6 PUSH1 0x20 MSTORE PUSH1 0x40 SWAP1 KECCAK256 SLOAD SWAP1 JUMP JUMPDEST PUSH1 0x0 DUP1 SLOAD PUSH1 0x40 DUP1 MLOAD PUSH1 0x20 PUSH1 0x2 PUSH1 0x1 DUP6 AND ISZERO PUSH2 0x100 MUL PUSH1 0x0 NOT ADD SWAP1 SWAP5 AND SWAP4 SWAP1 SWAP4 DIV PUSH1 0x1f DUP2 ADD DUP5 SWAP1 DIV DUP5 MUL DUP3 ADD DUP5 ADD SWAP1 SWAP3 MSTORE DUP2 DUP2 MSTORE SWAP3 SWAP2 DUP4 ADD DUP3 DUP3 DUP1 ISZERO PUSH2 0x3d4 JUMPI DUP1 PUSH1 0x1f LT PUSH2 0x3a9 JUMPI PUSH2 0x100 DUP1 DUP4 SLOAD DIV MUL DUP4 MSTORE SWAP2 PUSH1 0x20 ADD SWAP2 PUSH2 0x3d4 JUMP JUMPDEST CALLER PUSH1 0x0 SWAP1 DUP2 MSTORE PUSH1 0x6 PUSH1 0x20 MSTORE PUSH1 0x40 DUP2 KECCAK256 SLOAD PUSH2 0x8b8 SWAP1 DUP4 PUSH4 0xffffffff PUSH2 0xabb AND JUMP JUMPDEST CALLER PUSH1 0x0 SWAP1 DUP2 MSTORE PUSH1 0x6 PUSH1 0x20 MSTORE PUSH1 0x40 DUP1 DUP3 KECCAK256 SWAP3 SWAP1 SWAP3 SSTORE PUSH1 0x1 PUSH1 0x1 PUSH1 0xa0 SHL SUB DUP6 AND DUP2 MSTORE KECCAK256 SLOAD PUSH2 0x8ea SWAP1 DUP4 PUSH4 0xffffffff PUSH2 0xad0 AND JUMP JUMPDEST PUSH1 0x1 PUSH1 0x1 PUSH1 0xa0 SHL SUB DUP5 AND PUSH1 0x0 DUP2 DUP2 MSTORE PUSH1 0x6 PUSH1 0x20 SWAP1 DUP2 MSTORE PUSH1 0x40 SWAP2 DUP3 SWAP1 KECCAK256 SWAP4 SWAP1 SWAP4 SSTORE DUP1 MLOAD CALLER DUP2 MSTORE SWAP3 DUP4 ADD SWAP2 SWAP1 SWAP2 MSTORE DUP2 DUP2 ADD DUP5 SWAP1 MSTORE MLOAD PUSH32 0xddf252ad1be2c89b69c2b068fc378daa952ba7f163c4a11628f55a4df523b3ef SWAP2 DUP2 SWAP1 SUB PUSH1 0x60 ADD SWAP1 LOG1 POP PUSH1 0x1 SWAP3 SWAP2 POP POP JUMP JUMPDEST PUSH1 0x5 SLOAD PUSH1 0x40 DUP1 MLOAD PUSH4 0x23b872dd PUSH1 0xe0 SHL DUP2 MSTORE CALLER PUSH1 0x4 DUP3 ADD MSTORE ADDRESS PUSH1 0x24 DUP3 ADD MSTORE PUSH1 0x44 DUP2 ADD DUP5 SWAP1 MSTORE SWAP1 MLOAD PUSH1 0x0 SWAP3 PUSH1 0x1 PUSH1 0x1 PUSH1 0xa0 SHL SUB AND SWAP2 PUSH4 0x23b872dd SWAP2 PUSH1 0x64 DUP1 DUP4 ADD SWAP3 PUSH1 0x20 SWAP3 SWAP2 SWAP1 DUP3 SWAP1 SUB ADD DUP2 DUP8 DUP8 DUP1 EXTCODESIZE ISZERO DUP1 ISZERO PUSH2 0x9a9 JUMPI PUSH1 0x0 DUP1 REVERT JUMPDEST POP GAS CALL ISZERO DUP1 ISZERO PUSH2 0x9bd JUMPI RETURNDATASIZE PUSH1 0x0 DUP1 RETURNDATACOPY RETURNDATASIZE PUSH1 0x0 REVERT JUMPDEST POP POP POP POP PUSH1 0x40 MLOAD RETURNDATASIZE PUSH1 0x20 DUP2 LT ISZERO PUSH2 0x9d3 JUMPI PUSH1 0x0 DUP1 REVERT JUMPDEST POP POP PUSH1 0x4 SLOAD PUSH1 0x0 SWAP1 PUSH2 0x9ff SWAP1 PUSH1 0x64 SWAP1 PUSH2 0x9f3 SWAP1 DUP7 SWAP1 PUSH4 0xffffffff PUSH2 0xaff AND JUMP JUMPDEST SWAP1 PUSH4 0xffffffff PUSH2 0xae0 AND JUMP JUMPDEST PUSH1 0x3 SLOAD SWAP1 SWAP2 POP PUSH2 0xa15 SWAP1 DUP3 PUSH4 0xffffffff PUSH2 0xad0 AND JUMP JUMPDEST PUSH1 0x3 SSTORE CALLER PUSH1 0x0 SWAP1 DUP2 MSTORE PUSH1 0x6 PUSH1 0x20 MSTORE PUSH1 0x40 SWAP1 KECCAK256 SLOAD PUSH2 0xa38 SWAP1 DUP3 PUSH4 0xffffffff PUSH2 0xad0 AND JUMP JUMPDEST CALLER PUSH1 0x0 DUP2 DUP2 MSTORE PUSH1 0x6 PUSH1 0x20 SWAP1 DUP2 MSTORE PUSH1 0x40 SWAP2 DUP3 SWAP1 KECCAK256 SWAP4 SWAP1 SWAP4 SSTORE DUP1 MLOAD SWAP2 DUP3 MSTORE SWAP2 DUP2 ADD DUP4 SWAP1 MSTORE DUP2 MLOAD PUSH32 0xf6798a560793a54c3bcfe86a93cde1e73087d944c0ea20544137d4121396885 SWAP3 SWAP2 DUP2 SWAP1 SUB SWAP1 SWAP2 ADD SWAP1 LOG1 POP PUSH1 0x1 SWAP3 SWAP2 POP POP JUMP JUMPDEST PUSH1 0x1 PUSH1 0x1 PUSH1 0xa0 SHL SUB SWAP2 DUP3 AND PUSH1 0x0 SWAP1 DUP2 MSTORE PUSH1 0x7 PUSH1 0x20 SWAP1 DUP2 MSTORE PUSH1 0x40 DUP1 DUP4 KECCAK256 SWAP4 SWAP1 SWAP5 AND DUP3 MSTORE SWAP2 SWAP1 SWAP2 MSTORE KECCAK256 SLOAD SWAP1 JUMP JUMPDEST PUSH1 0x0 DUP3 DUP3 GT ISZERO PUSH2 0xaca JUMPI PUSH1 0x0 DUP1 REVERT JUMPDEST POP SWAP1 SUB SWAP1 JUMP JUMPDEST DUP2 DUP2 ADD DUP3 DUP2 LT ISZERO PUSH2 0x4c1 JUMPI PUSH1 0x0 DUP1 REVERT JUMPDEST PUSH1 0x0 DUP1 DUP3 GT PUSH2 0xaee JUMPI PUSH1 0x0 DUP1 REVERT JUMPDEST DUP2 DUP4 DUP2 PUSH2 0xaf7 JUMPI INVALID JUMPDEST DIV SWAP4 SWAP3 POP POP POP JUMP JUMPDEST DUP2 DUP2 MUL DUP3 ISZERO DUP1 PUSH2 0xb17 JUMPI POP DUP2 DUP4 DUP3 DUP2 PUSH2 0xb14 JUMPI INVALID JUMPDEST DIV EQ JUMPDEST PUSH2 0x4c1 JUMPI PUSH1 0x0 DUP1 REVERT INVALID NUMBER PUSH16 0x6e747261637420646f6573206e6f7420 PUSH4 0x6f6e7461 PUSH10 0x6e20656e6f7567682074 PUSH16 0x6b656e7320746f207769746864726177 KECCAK256 PUSH21 0x68697320616d6f756e742e53656e64657220646f65 PUSH20 0x206e6f74206861766520656e6f75676820746f6b PUSH6 0x6e7320696e20 PUSH21 0x686569722077616c6c657420746f20776974686472 PUSH2 0x7720 PUSH21 0x68697320616d6f756e742ea265627a7a7231582085 0xca 0xc2 0x4d PUSH7 0xdb765cbaf9bb5e CALLDATASIZE PUSH10 0x58a16957de38bb5761e7 JUMPI 0x5e PUSH4 0x80a86488 DELEGATECALL PUSH5 0x736f6c6343 STOP SDIV SIGNEXTEND STOP ORIGIN ",
  "sha1": "0e8e50210b960324a0bac48a5855a57aa3347af1",
  "source": "pragma solidity ^0.5.0;\n\nimport \"./SafeMath.sol\";\n\ncontract ERC20 {\n    function totalSupply() public view returns (uint);\n    function balanceOf(address tokenOwner) public view returns (uint balance);\n    function allowance(address tokenOwner, address spender) public view returns (uint remaining);\n    function transfer(address to, uint tokens) public returns (bool success);\n    function approve(address spender, uint tokens) public returns (bool success);\n    function transferFrom(address from, address to, uint tokens) public returns (bool success);\n    event Transfer(address indexed from, address indexed to, uint tokens);\n    event Approval(address indexed tokenOwner, address indexed spender, uint tokens);\n}\n\ncontract HKDai {\n\n    using SafeMath for uint256;\n\n    string public symbol;\n    string public name;\n    uint256 public decimals;\n    uint256 public totalSupply;\n\n    uint256 conversionFactor; // divide by 100 when using\n    address underlyingTokenAddress; // e.g. DAI\n\n    mapping(address => uint256) balances;\n    mapping(address => mapping(address => uint256)) allowed;\n\n    event Transfer(address from, address to, uint256 value);\n    event Approval(address owner, address spender, uint256 value);\n    event Mint(address minter, uint256 value);\n    event Burn(address burner, uint256 value);\n\n    constructor(\n        string memory _symbol,\n        string memory _name,\n        uint256 _decimals,\n        uint256 _totalSupply,\n        address _underlyingTokenAddress,\n        uint256 _conversionFactor\n    )\n        public\n    {\n        symbol = _symbol;\n        name = _name;\n        decimals = _decimals;\n        totalSupply = _totalSupply;\n        underlyingTokenAddress = _underlyingTokenAddress;\n        conversionFactor = _conversionFactor;\n        balances[msg.sender] = _totalSupply;\n        emit Transfer(address(0), msg.sender, _totalSupply);\n    }\n\n    function () external payable {\n        revert(\"This contract is not payable\");\n    }\n\n    function balanceOf(address _owner) public view returns (uint256) {\n        return balances[_owner];\n    }\n\n    function allowance(\n        address _owner,\n        address _spender\n    )\n        public\n        view\n        returns (uint256)\n    {\n        return allowed[_owner][_spender];\n    }\n\n    function approve(address _spender, uint256 _value) public returns (bool) {\n        allowed[msg.sender][_spender] = _value;\n        // TODO: figure out how to do approval properly:\n        ERC20(underlyingTokenAddress).approve(_spender, _value);\n        emit Approval(msg.sender, _spender, _value);\n        return true;\n    }\n\n    function transfer(address _to, uint256 _value) public returns (bool) {\n        balances[msg.sender] = balances[msg.sender].sub(_value);\n        balances[_to] = balances[_to].add(_value);\n        emit Transfer(msg.sender, _to, _value);\n        return true;\n    }\n\n    function transferFrom(\n        address _from,\n        address _to,\n        uint256 _value\n    )\n        public\n        returns (bool)\n    {\n        require(allowed[_from][msg.sender] >= _value, \"Insufficient allowance\");\n        balances[_from] = balances[_from].sub(_value);\n        allowed[_from][msg.sender] = allowed[_from][msg.sender].sub(_value);\n        balances[_to] = balances[_to].add(_value);\n        emit Transfer(_from, _to, _value);\n        return true;\n    }\n\n    function deposit(uint256 _underlyingValue) public returns (bool) {\n        ERC20(underlyingTokenAddress).transferFrom(msg.sender, address(this), _underlyingValue);\n        uint256 _mintValue = _underlyingValue.mul(conversionFactor).div(100);\n        totalSupply = totalSupply.add(_mintValue);\n        balances[msg.sender] = balances[msg.sender].add(_mintValue);\n        emit Mint(msg.sender, _mintValue);\n        return true;\n    }\n\n    function withdraw(uint256 _burnValue) public returns (bool) {\n        require(\n          balances[msg.sender] >= _burnValue,\n          \"Sender does not have enough tokens in their wallet to withdraw this amount.\"\n        );\n        require(\n          totalSupply >= _burnValue,\n          \"Contract does not contain enough tokens to withdraw this amount.\"\n        );\n        totalSupply = totalSupply.sub(_burnValue);\n        balances[msg.sender] = balances[msg.sender].sub(_burnValue);\n        uint256 _underlyingValue = _burnValue.div(conversionFactor).mul(100);\n        ERC20(underlyingTokenAddress).transferFrom(address(this), msg.sender, _underlyingValue);\n        emit Burn(msg.sender, _burnValue);\n        return true;\n    }\n}\n",
  "sourcePath": "contracts/HKDai.sol",
  "type": "contract"
}